:020000024000BC
:1040000000000120B1090700E44A0200010000009D
:10401000DFF804D02CF0CCBC000001204FF02000D1
:1040200080F311884FF0020080F31488BFF36F8F84
:10403000684680F309884EF00D0E7047EFF3098053
:10404000A0F1300181F309884FF00101EFF30582FF
:10405000EFF3118320E9FE4F04462CF0A1FD20462A
:10406000B0E8FE4F80F3098883F31188704700B5EC
:1040700081B0EFF30580A0F10F002CF095FD01B0A9
:1040800000BDEFF3098CACF1200080F309884FF0FC
:104090008073034A03492CE90F002CE90F00704795
:1040A000F50B0700A9400400074B00DFEFF3098C74
:1040B0000CF1200C8CF30988704731F071B8EFF3E4
:1040C000098C9CE80F001847AD400400EFF309800D
:1040D000A0F1080181F3098820E9104004462CF082
:1040E00025FE2146B1E8104081F3098800287FF4BD
:1040F000A5AF7047D0F800D0D0F804F008B51DF097
:1041000023F821F0A5F901F069FE18B923F0A4FB0A
:1041100023F064FBBDE8084002F0E6BA08B5124996
:10412000124802F013FA1249124802F00FFA12492B
:10413000124802F00BFA1249124802F007FA1BF07B
:104140009FFF1149114802F001FA1149114802F08C
:10415000FDF91149114802F0F9F911491148BDE87A
:10416000084002F0F3B900BFF86907003C3F0020A7
:10417000FD690700E8970020E3B20700E03F002058
:10418000046A0700B83E00200B6A0700943A00203A
:104190000F6A0700883C0020166A07009C3F002039
:1041A0001F6A0700E83D002038B500F089F90023B8
:1041B000454A052118462FF09FFF18B1434AE821D0
:1041C00030F07CF800F0C2FE01F09EFA01F07CFEB7
:1041D00010B100F0EFFB01E000F04AFC2DF030F8E8
:1041E00070B92DF053F8BFF34F8F3949394BCA6876
:1041F00002F4E0621343CB60BFF34F8F00BFFDE7D3
:1042000006F082F906F084F915F008FE15F03EFE7E
:10421000002331491A465A54C818B833B3F5667F9B
:1042200042702D4DF7D1FFF769FF23F047FB08B12E
:1042300023F0CCFA23F03CFB88B902F04FFA60B1CE
:10424000264802F033F9FFF769FF02F05DF901F04B
:10425000C5FD20B102F0DCF901E02DF0D9F915F02F
:1042600081FF15F09DFF06F0E9F806F005F907F06B
:10427000C7FC07F0FBFC17F019FD17F00FFD01F06C
:1042800013FD08B91BF004FF01F0DCFC20B120F0A5
:1042900045FF20F081FF07E001F0E4FC0028F6D1A3
:1042A00001F0F2FC0028F2D10D4B01221A7000241B
:1042B0002B195A781AB1D3F8B00030F087FAB83415
:1042C000B4F5667FF4D138BD884A0020236A070020
:1042D00000ED00E00400FA05004B00202E6A070004
:1042E000984E00204FF0A043D3F8042520EA0201A5
:1042F0001040C3F80815C3F80C0570472FDF70474E
:1043000030DF70473FDF704740DF70473EDF704768
:1043100043DF704749DF704770474FF0A0434FF0CD
:104320000042C3F80C2570474FF0A0434FF0004205
:10433000C3F8082570474FF00040FFF7D3BF4FF098
:10434000A0434FF48002C3F80C2570474FF0A04300
:104350004FF48002C3F8082570474FF48000FFF740
:10436000C1BF4FF0A0434FF08042C3F80C25704707
:104370004FF0A0434FF08042C3F8082570474FF03C
:104380008040FFF7AFBF704708B51BF089FE2CF0E7
:1043900019FE00F04DFEBFF34F8F0549054BCA686B
:1043A00002F4E0621343CB60BFF34F8F00BFFDE721
:1043B00000ED00E00400FA051B2810B5044607D8FC
:1043C000134BC340DB0701D5012010BD162807D0D1
:1043D000A4F11E03012B03D9022C06D0002010BD2E
:1043E00001F072FD0028F7D1EEE701F03BFC002858
:1043F000EAD001F0D7FC0028E6D001F071FC0028DB
:10440000E2D101F07BFC003018BF012010BD00BFDD
:1044100000F7800808B51EF093FB08BD0139090BB1
:10442000013120F47F6089B220F00F001DF03ABE08
:1044300092081DF06FBE13B500230193044628B9FE
:104440002CF0B8FE01AA0146204610E0012806D152
:104450002CF0B0FE01AA01464FF4083007E0022814
:1044600007D12CF0A7FE01AA01464FF4882000F0E6
:10447000F3FC019802B010BD024BC31A58425841D8
:10448000704700BF2A00CADE08B51EF059FB10B104
:10449000FFF738FF01E02CF08BFCBDE8084030F05E
:1044A0002BB808B530F02EF81EF04AFB18B1BDE865
:1044B0000840FFF729BFBDE808402CF08FBC000082
:1044C000014902482CF076BF80969800874304008B
:1044D0002EF06EB900B52DED028B83B01EF030FBCF
:1044E00018B101A8FFF716FF1CE0184B1860A3F2E3
:1044F000045301221A601A46D2F80011144B002905
:10450000FAD00022C3F80021D3F80825D3F80835E3
:10451000920544BF6FEA83536FEA935301930C4BA8
:1045200001225A609DED018ABAEECF8A05F0ECFFB8
:1045300020B1FDEEC87A17EE903A0373B0EE480A48
:1045400003B0BDEC028B5DF804FB00BF04C5004066
:1045500000C00040F7B51EF0F3FA2F4C2F4A304B45
:1045600098B1FFF7D3FE0025156012680092009AFB
:104570002C4AD2F804151A6897071FD52A480668EE
:10458000B6B12A4F05603E6012E040BF20BF20BF99
:10459000106012680192019A224AD2F804151A6832
:1045A00096070BD5204D2E6816B1204F28603E602F
:1045B00022F002021A604FF0FF322260206801F2FE
:1045C0004712451C22F07F421FD0411A21F07F4143
:1045D000174DA1F1A406AE420ED91349086818B1CF
:1045E000124D286000200860196841F00801196028
:1045F0004FF0FF33236008E040F28E24A1429FBFBA
:104600001A6842F002021A6002460123002109489A
:104610002FF0CCFE03B0F0BDDC4900204041024049
:10462000689D002000400240649D00206C9D002099
:104630005CFF3B00404A002038B530F093F90A2374
:10464000A0FB034503FB01554FF47A72002320467B
:10465000294624F0E9F938BD30B58FB00EAC0023FF
:1046600024F82A3D0493144B0193144B0093144AED
:10467000144B15491548164D25F0C4FA214604A8D7
:1046800030F0C4F8A8B105AABDF80E10049830F0B7
:10469000FDF870B10D9B089A01930C9B0093BDF837
:1046A0001810099B0B48002A08BF2A4625F0AAFAD1
:1046B000E4E70FB030BD00BF5B6A0700606A070027
:1046C0003E6A0700396A0700A2B50700436A07007F
:1046D000346A0700666A0700D0B58EB004A825F0DA
:1046E00087FA30F03FF94FF47A74A0FB046704FBBB
:1046F0000177642200233046394624F095F9049B63
:1047000002930B9B01930C9BB0FBF4F1009304FB11
:104710001102034B034825F075FA0EB0D0BD00BF5F
:104720007D6A0700816A07002DE9F04F89B030F0FB
:1047300019F964234FF47A75B0FBF3F203FB120608
:104740006E43B6FBF3F63C23B2FBF3F803FB1828E9
:1047500041F27072B0FBF2F2B2FBF3F903FB1929DC
:1047600018220446194B1A4FB0FBF3F3B0FBF7F7CE
:10477000B3FBF2FA02FB1A3A30F0F4F8A0FB05BCE6
:1047800005FB01CC614664220023584624F04CF915
:10479000104A114BB0FBF5F14FF00A0E012F08BF84
:1047A00013460EFB04F4059305FB110206940497CF
:1047B0000396CDF80880CDF80490CDF800A0074B03
:1047C000074825F01FFA09B0BDE8F08F407E0500CC
:1047D00000D6830017B407004DAD07007D6A0700BF
:1047E000AE6A07002DE9F04F87B000285CD000F0DA
:1047F00009FD01F031F800F005FD01F027F94FF057
:1048000080434FF47A74D3F80C54D3F80C24D3F8C3
:104810001865D3F8187402F0011830F0A3F8A0FB63
:1048200004BC04FB01CC642200236146584624F0FA
:10483000FBF8B0FBF4F904FB1904FFF74BFE10EE94
:10484000100A23F0F7FB05F00105294BDFF8C0E063
:10485000284ADFF8A8C045F4803A06F00306C7F3FB
:104860000047002D0CBF1D467546D04508BF624667
:104870002EB1214B012E0CBF76461E4600E01E468F
:10488000DFF870E01D4B0392002F14BF1F467746E0
:10489000CDE90001059704960295194B1948224667
:1048A000494625F0AFF920E000F0ACFC054630F0B9
:1048B00059F84FF47A74A0FB046704FB0177642273
:1048C00000233046394624F0AFF82B6A0393AB6AD5
:1048D00002932B7801930C4BB0FBF4F1009304FB93
:1048E0001102074B094825F08DF907B0BDE8F08F9C
:1048F000EB6A070016A60700F66A0700F36A0700CE
:104900007D6A0700FC6A0700676B0700336B0700CE
:10491000EE6A070070B51EF013F9E8B1EFF31085E9
:1049200072B60E4A0E489468012394B993600D4BF9
:104930000D49D3F88060314011600B49C3F88010F5
:10494000D3F8841051604FF0FF32C3F88420047014
:1049500000E0037005B962B670BD00BF78AC0020FE
:104960009A4E002000E100E0FC06FFBC10B51EF0EE
:10497000E7F880B1084B9A686AB1084A117851B9D2
:10498000EFF3108272B606481C6804605C684460ED
:10499000996002B962B610BD78AC00209A4E002032
:1049A00000E100E010B504461F202CF01FFB206042
:1049B000002010BD4FF0A04303224FF48001C3F844
:1049C0005827C3F808154FF08041C3F87827C3F87B
:1049D0000815C3F87C274FF00042C3F80825104B98
:1049E000104A1A60104B114A1A60114B114A1A6092
:1049F000114B124A1A60124B124A1A60124B134A98
:104A00001A60134B134A14491A60144B0B60144973
:104A10001448086014490A60144A1360704700BFC4
:104A2000EC3800201B430400F83800202943040020
:104A3000F038002037430400003900203F430400D1
:104A4000FC3800204D430400F43800205B43040090
:104A50000839002063430400043900207143040036
:104A6000E03800207F430400E4380020E8380020CC
:104A7000104A114B1360114A1360114A1360114A16
:104A80001360114A1360114A1360114A1360114AEE
:104A90001360114A1360114A1360114A13604FF0FA
:104AA000A0430222C3F85827C3F87827C3F87C270D
:104AB000704700BFEC38002019430400F83800208C
:104AC000F038002000390020FC380020F4380020A5
:104AD0000839002004390020E0380020E4380020A4
:104AE000E8380020F7B5002307460E46CCB28DF813
:104AF00007301EF025F808B100252AE0284D2B7854
:104B00009A07F9D41EF0BEFD18B92B7843F00203C2
:104B10002B702B789B07EFD44FF0FF303DE01EF059
:104B20000FF8C8B10DF10700FFF7E8FB20B11D4AEF
:104B300040F24D212FF0C2FB9DF80730A34228BF61
:104B400023468DF8073063B9C4EB441080002CF085
:104B5000ABF8002CE3D11FE00DF107001EF0DEFDE5
:104B6000E4E71DF0EDFF9DF807107B1918B118461A
:104B7000FFF7C6FB02E018461EF0DAFD20B1094A35
:104B800040F25A212FF09AFB9DF80730E41A1D4499
:104B900014F0FF04EDB2D7D1304603B0F0BD00BF32
:104BA000994E00206B6B070070B5044628B310299E
:104BB00023D1134A034600F1100153F8040B42F8C5
:104BC000040B8B42F9D11DF0BBFF0E4D28B12B78A1
:104BD00043F001032B70002070BD2B78DB0703D45A
:104BE0002CF016FC064600E0012620462CF068FC5E
:104BF000002EECD16FF0010070BD4FF0FF3070BDA2
:104C00009B4E0020994E00202DE9F04F9846444BD2
:104C10001B788BB0DB0704460F4601927AD51DF056
:104C20008FFF064608B906AD00E03E4D0DF1080EB7
:104C3000234604F11009744618685968F446ACE834
:104C4000030008334B45E646F6D14FF0000B0DF15B
:104C5000180905F1100A149B9B4508EB0B0E31DA7D
:104C6000002054F820105EF820304B4044F82030EB
:104C700001300428F5D1E6B12B4AA446634603CBA4
:104C80004B45106051609C4602F10802F6D127485E
:104C9000FFF73EFB98B92B46A44618685968E646CC
:104CA000AEE8030008335345F446F6D10BF1100B80
:104CB000D1E7214628462CF0C7FB0028EBD16FF046
:104CC000020029E0002354F8230057F82310414044
:104CD00044F823100133042BF5D1A6B1124A06AFD4
:104CE000234603CBBB42106051601C4602F1080210
:104CF000F6D10E48FFF70CFB0028E0D1019A2B8873
:104D00001380002008E0214628462CF09DFB002857
:104D1000F4D1D4E74FF0FF300BB0BDE8F08F00BF07
:104D2000994E0020BB4E0020AB4E00209B4E002031
:104D30002DE9F0471F462C4B1B78DB0788B0064651
:104D40008A4614464BD51DF0FBFE054610B90DF101
:104D5000100901E0DFF89C90A046C4EB08039F42D5
:104D60003BDD514695B1214B0AF1100251F8040B7D
:104D700043F8040B9142F9D11D48FFF7C9FA50B925
:104D8000A6B94346EE4608F1100C07E048462CF061
:104D90005BFB0028F4D16FF0020022E0186859682C
:104DA000724603C2083363459646F7D1A8F104035F
:104DB000A9F1040108F10C0053F804EF51F8042F95
:104DC00098428EEA02021A60F6D10EB1414600E026
:104DD000694608F110088A46BFE7002001E04FF05D
:104DE000FF3008B0BDE8F087994E0020AB4E0020A0
:104DF0009B4E0020BB4E002008B52CF039FC08BDAE
:104E0000F8B50E4615460C46A31B9D420BDD2378D4
:104E10000A2B274602D10D202CF012FC38780134E1
:104E20002CF00EFCF0E72846F8BD0000074B1A688E
:104E30000AB9074A1A601B68064A184490429DBF87
:104E4000024A106018464FF0FF307047CC4E0020E9
:104E500090AC002000000120F0B5134D2B6800EB52
:104E6000010EDB4311492B6000264FF0FF342F4623
:104E7000704510D010F8015B84EA05065D40F6B27B
:104E8000EDB251F8266051F8255086EA142485EADF
:104E900013230126ECE706B13B603B68E443DB43A8
:104EA00014603B600020F0BDD04E0020A86B0700CE
:104EB00010B500210446236A204698470146002881
:104EC000F9D110BD08484FF6FF7100F6F87203885B
:104ED0008B4207D083782BB103331844C31C934211
:104EE000F5D90020704700BFE04E002073B5144E86
:104EF00033680BB3134C2368F3B1134D6B6828462A
:104F0000013340F8043F40F6FC7101AAFFF7A4FF0B
:104F1000019B20682B604FF48051FFF77FFA68B93E
:104F20004FF4805229462068FFF782FA30B933687F
:104F300022683260236001E04FF0FF3002B070BDA4
:104F4000D85E0020D44E0020D84E00202DE9F34733
:104F5000314DDFF8D080DFF8D090DFF8D0A04FF4EB
:104F600000344FF0FF37002655F8043C013B033373
:104F70000BD94FF48052FF212848C8F80040C9F8E7
:104F8000004024F0E3FDFFF7B1FF55F8043C534522
:104F900032D16368012B2FD16368B34224BFC8F8B4
:104FA00000401E46BB429CBFC9F800401F461C4B38
:104FB00005F580559D4204F58054D5D1194B1C68E8
:104FC00034B31648236803606368436040F6F872A0
:104FD00004F10801083024F01FFD134B1A6842B990
:104FE000B4F5003F14BF4FF400324FF404321A609E
:104FF0000EE094420CD1F3E701AA40F6FC7128467A
:10500000FFF72AFF55F8042C019B9A42CFD1C3E742
:1050100002B0BDE8F08700BF04000200D84E0020B7
:1050200004200200D85E0020D44E0020820418A57F
:105030000F4B186820F48053B3F5003F10B513D11F
:105040000C4C236823F48053B3F5003F0CD14FF48C
:105050008051FFF7E3F94FF480512068FFF7DEF944
:10506000FFF774FF002010BD4FF0FF3010BD00BFF0
:10507000D85E0020D44E00200A4B30B54FF6FF75A5
:1050800003F6F8741988A94208D09A7832B181429F
:1050900006D003321344DA1CA242F3D9002030BDFB
:1050A000184630BDE04E00204FF6FF7398422DE9C0
:1050B000F04781460F46904603D14FF0FF30BDE8E0
:1050C000F087FFF7D9FF064618B9FFF7FBFE68BB6C
:1050D000F3E784781FB1BC4224D0012500E03D46AF
:1050E000FFF7F0FE04F1030A184B06EB0A01002853
:1050F00008BF1846CB1C984201D9884203D1821BB5
:10510000FF21304607E0441A2246304624F084FC52
:105110005246FF21301924F019FD002DD5D1284623
:10512000BDE8F0872246414603300AE0FB1C074AEF
:1051300003449342C1D8A0F8009087703A46414694
:10514000033024F069FC0020BDE8F087D85E002021
:1051500010B50C46FFF790FF064B93F8B8302BB113
:1051600020B1837813B12370033010BD002020706C
:1051700010BD00BFDC5E002010B50C46FFF77CFFC1
:1051800018B18078031B5842584110BD38B50C4601
:105190001546FFF771FF40B18278AA4205D1C11CC4
:1051A000204624F039FC002038BD4FF0FF3038BDD8
:1051B00010B5054C402122460120FFF775FF012361
:1051C00084F8B93010BD00BFDC5E002010B5054C7E
:1051D000402104F178020320FFF766FF012384F8E1
:1051E000B93010BDDC5E002010B5054C382104F14B
:1051F00040020220FFF758FF012384F8B93010BDA8
:10520000DC5E0020034890F8B830002B08BF002077
:10521000704700BFDC5E002070B5FFF7F3FF044667
:1052200008B32BF075FF2070C0B22BF0B7FF2646F5
:10523000002546F8040F28462BF0BCFF46F8040F63
:105240002846FFF7F8F80135032DF060F3D1084B3D
:105250002362084B6362084BA3622378022B05D1BB
:10526000064BA36202E04FF0FF3070BD002070BD1E
:10527000000701002A00CADE00000301010003014B
:1052800010B5084C94F8B830024643B1C9B20A20B0
:10529000FFF70AFF012384F8B930002010BD4FF05A
:1052A000FF3010BDDC5E002001460B20FFF750BF31
:1052B00010B5084C94F8B830024643B1C9B20B207F
:1052C000FFF7F2FE012384F8B930002010BD4FF043
:1052D000FF3010BDDC5E002001461420FFF738BF10
:1052E00010B5084C94F8B830024643B1C9B2142046
:1052F000FFF7DAFE012384F8B930002010BD4FF02B
:10530000FF3010BDDC5E0020044890F8B830002B60
:1053100000F1400008BF0020704700BFDC5E0020A5
:1053200038B50B4A92F8B8307BB10346403200F1F1
:10533000380518685968144603C40833AB4222463E
:10534000F7D1FFF751FF002038BD4FF0FF3038BDD7
:10535000DC5E002070B50C4C94F8B85085B1256D1A
:1053600075B194F85C605EB1056094F85C000870FB
:10537000B4F858101180B4F95A201A80002070BD7A
:105380004FF0FF3070BD00BFDC5E002038B5094C27
:1053900094F8B85055B1206584F85C10A4F85820F2
:1053A000A4F85A30FFF720FF002038BD4FF0FF303F
:1053B00038BD00BFDC5E002010B5094B93F8B82063
:1053C0005AB1B3F8542042B1B3F856402CB1028020
:1053D000B3F856300B80002010BD4FF0FF3010BDE9
:1053E000DC5E002008B5074B93F8B8203AB1A3F86B
:1053F0005400A3F85610FFF7F7FE002008BD4FF049
:10540000FF3008BDDC5E0020064B93F8B82032B1B7
:1054100093F85D301F2B02D80370002070474FF0C7
:10542000FF307047DC5E002008B5064B93F8B820CB
:105430002AB183F85D00FFF7D7FE002008BD4FF0CA
:10544000FF3008BDDC5E0020054B93F8B82022B188
:10545000B3F85E300380002070474FF0FF30704794
:10546000DC5E002008B5064B93F8B8202AB1A3F8FB
:105470005E00FFF7B9FE002008BD4FF0FF3008BD09
:10548000DC5E0020044890F8B830002B00F1780072
:1054900008BF0020704700BFDC5E0020054B93F87A
:1054A000B8201AB1DB6A0360002070474FF0FF306C
:1054B000704700BFDC5E002008B5064B93F8B820AB
:1054C00022B1D862FFF774FE002008BD4FF0FF3014
:1054D00008BD00BFDC5E002020F0007323F4004311
:1054E0002BB9044A116808431060184670474FF002
:1054F000FF3070470C390020054B93F8B82022B1DB
:10550000D3F880300360002070474FF0FF307047C1
:10551000DC5E002008B5064B93F8B8202AB1C3F82A
:105520008000FFF753FE002008BD4FF0FF3008BD9C
:10553000DC5E002038B50D4C94F8B8509DB110B128
:105540000068C4F8840011B10968C4F8881012B169
:105550001268C4F88C2013B11B7884F89430FFF7DC
:1055600035FE002038BD4FF0FF3038BDDC5E002036
:10557000064B93F8B8202AB19A6F0260DB6F0B607C
:10558000002070474FF0FF30704700BFDC5E002006
:1055900008B5064B93F8B8202AB19867D967FFF78A
:1055A00015FE002008BD4FF0FF3008BDDC5E002076
:1055B0000A4B93F8B8101A4639B10023D11891F864
:1055C000981031B90133102BF8D10023037018461D
:1055D0007047102303700248704700BFDC5E002054
:1055E000745F002008B510220021034824F0AEFAB1
:1055F000FFF7ECFD002008BD745F00200A4A92F816
:10560000B810034669B192F8A820012A4FF00000B3
:1056100003D0022A03D0012201E0187070471A70EB
:1056200070474FF0FF307047DC5E0020084B93F866
:10563000B8204AB1B3F8AA3013B1038000207047F4
:105640004FF6FF720280F9E74FF0FF30704700BF5E
:10565000DC5E0020044B93F8B90020B1002283F8EF
:10566000B920FFF743BC7047DC5E002013B501464C
:1056700004460A20FFF76CFD0346F8B904F03CFA33
:1056800004F0FBF9442382B28DF800300421572343
:105690000DF102008DF8013001F05CFA06216A4636
:1056A0000A20FFF701FD074B012283F8B920FFF71D
:1056B000D1FF21460A20FFF74BFD0346184602B0F2
:1056C00010BD00BFDC5E002008B50E4B93F8B8207B
:1056D00092B1012807D004D3022810D183F8A80082
:1056E00004E0012200E0002283F8A820FFF76EFD0D
:1056F000BDE80840FFF7AEBF4FF0FF3008BD6FF0C8
:10570000010008BDDC5E002073B54C4C0021C022B6
:10571000204624F01BFA40210120FFF72DFD38B36D
:1057200038210220FFF728FD10B340210320FFF7A6
:1057300023FDE8B1402221460120FFF727FDB8B93B
:10574000226A3F4B9A4213D13C4C40222146012011
:10575000FFF71CFD00286EDB3A4BE26A1A6004F189
:10576000400138220220FFF711FD002854DA62E0E0
:10577000354BE36201A8FFF715F938B9019B5A1EB2
:10578000033203D82D4AD3622BF01CFC2C4B23622E
:10579000FFF70EFD052384F84030022384F84130E2
:1057A00084F84730032384F848308123A4F84C3030
:1057B000012300250922142684F84930FF2384F8A8
:1057C0005D3084F8442084F8452084F8426084F8F1
:1057D000435084F8465084F84A502565A4F8545044
:1057E000A4F85650A4F85E50FFF7FEFC3246294656
:1057F000164824F0ABF9164BA367164BE3674FF638
:10580000FF73A4F8AA30C4F88050FFF7DFFCFFF75D
:1058100021FF002898DA0EE0402204F178010320ED
:10582000FFF7B4FC002806DB012384F8B830FFF74B
:10583000F3FC00EAE07002B070BD00BFDC5E002047
:10584000000701009C5F002040A3C113605F00209F
:10585000A0860100809698002DE9F74306462FF0B8
:1058600081F84FF47A74A0FB048904FB0199642247
:1058700000234046494623F0D7F8684BB0FBF4F1CB
:1058800004FB1102664824F0BDF92FF06BF8A0FB71
:10589000048904FB0199642200234046494623F011
:1058A000C3F8736801933378B0FBF4F1009304FB01
:1058B00011025A4B5B4824F0A5F92FF053F8A0FBD6
:1058C000048904FB0199642200234046494623F0E1
:1058D000ABF8554B0193554BB0FBF4F1009304FB2F
:1058E00011024E4B524824F08DF92FF03BF8A0FBEB
:1058F000048904FB0199642200234046494623F0B1
:1059000093F8336AB0FBF4F1009304FB1102434BAC
:10591000484824F077F92FF025F8A0FB048904FB10
:105920000199642200234046494623F07DF8B36A7A
:10593000B0FBF4F1009304FB1102384B3E4824F015
:1059400061F92FF00FF8A0FB048904FB0199642290
:1059500000234046494623F067F8736AB0FBF4F130
:10596000009304FB11022D4B344824F04BF92EF028
:10597000F9FFA0FB048904FB01996422002340463F
:10598000494623F051F8F36AB0FBF4F1009304FBAD
:105990001102224B2A4824F035F9371D00252EF03C
:1059A000E1FFA0FB048904FB019964220023404627
:1059B000494623F039F857F8043FB0FBF4F101935E
:1059C000009504FB1102154B1E48013524F01AF90D
:1059D000032DE4D106F1100400254FF47A762EF061
:1059E000C1FFA0FB068906FB019964220023404603
:1059F000494623F019F854F8043FB0FBF6F101933F
:105A0000009506FB1102054B0F48013524F0FAF80A
:105A1000032DE4D103B0BDE8F08300BF7D6A070029
:105A2000A86F0700BD6F0700F66F0700F96F07004A
:105A3000D96F070001700700207007003E70070053
:105A40005C700700777007009A700700F7B504468E
:105A50002EF088FF4FF47A75A0FB056705FB0177F0
:105A6000642200233046394622F0DEFF524BB0FB61
:105A7000F5F1009305FB1102504B514824F0C2F898
:105A8000E36A9A0702D54F4824F0BCF8E36A5B0743
:105A900002D54D4824F0B6F8E36A1F0702D54B48FB
:105AA00024F0B0F8E36A13F0300301D1484802E073
:105AB000102B02D1474824F0A5F8E36A5E0602D510
:105AC000454824F09FF8E36ADD0502D5434824F0F9
:105AD00099F8E36A980502D5414824F093F8E36AFF
:105AE000590502D53F4824F08DF8E36A1A0502D51E
:105AF0003D4824F087F8E36ADB0402D53B4824F0F4
:105B000081F8E36A9F0402D5394824F07BF8E36A00
:105B10005E0402D5374824F075F8E36A1D0402D507
:105B2000354824F06FF8E36A180102D5334824F0B1
:105B300069F8E36A990002D5314824F063F8E36A12
:105B4000DA0002D52F4824F05DF8E36A5B0002D545
:105B50002D4824F057F8E36ADF0302D52B4824F0E0
:105B600051F8E36A9E0302D5294824F04BF8E36A12
:105B70005D0302D5274824F045F8E36A980102D571
:105B8000254824F03FF8E36A590202D5234824F05F
:105B900039F8E36A1A0202D5214824F033F8E36A9F
:105BA000DB0102D51F4824F02DF80A2003B0BDE820
:105BB000F04024F03BB800BFD17007007D6A0700B9
:105BC000BD700700D5700700D9700700DF700700AF
:105BD000E7700700EC700700F0700700F570070031
:105BE000FB70070001710700067107000A710700CA
:105BF0001071070015710700417107001B71070044
:105C000020710700257107002A7107002F71070016
:105C1000357107003B7107004071070045710700AF
:105C20004A7107004F710700044A054B10681B6852
:105C3000184018BFC0F34000704700BF0C39002067
:105C40009C5F0020054B064A1B681068184004D072
:105C500010F00E0F0CBF0120002070479C5F002049
:105C60000C390020064B074A1B681068184006D004
:105C700040F60E030340A3F50063584258417047B5
:105C80009C5F00200C390020054B064A1B681068F9
:105C9000184004D010F4C06F14BF012000207047DA
:105CA0009C5F00200C390020044A054B10681B68DB
:105CB000184018BFC0F3C000704700BF0C39002067
:105CC0009C5F0020044A054B10681B68184018BFF1
:105CD000C0F38000704700BF0C3900209C5F00209B
:105CE000044A054B10681B68184018BFC0F34020D9
:105CF000704700BF0C3900209C5F0020044A054B10
:105D000010681B68184018BFC0F38020704700BFA0
:105D10000C3900209C5F0020044A054B10681B686A
:105D2000184018BFC0F3C020704700BF0C390020D6
:105D30009C5F0020044A054B10681B68184018BF80
:105D4000C0F34030704700BF0C3900209C5F00203A
:105D5000044A054B10681B68184018BFC0F3803018
:105D6000704700BF0C3900209C5F0020044A054B9F
:105D700010681B68184018BFC0F3C030704700BFE0
:105D80000C3900209C5F0020044A054B10681B68FA
:105D9000184018BFC0F30030704700BF0C39002016
:105DA0009C5F0020044A054B10681B68184018BF10
:105DB000C0F34060704700BF0C3900209C5F00209A
:105DC000044A054B10681B68184018BFC0F30070E8
:105DD000704700BF0C3900209C5F0020044A054B2F
:105DE00010681B68184018BFC0F34070704700BFB0
:105DF0000C3900209C5F0020044A054B10681B688A
:105E0000184018BFC0F38070704700BF0C390020E5
:105E10009C5F0020044A054B10681B68184018BF9F
:105E2000C0F3C060704700BF0C3900209C5F0020A9
:105E3000102938B50BD1144B93F8B8303BB1431E41
:105E400000F10F0213F8011F21B99342FAD14FF06C
:105E5000FF3038BD0D4C034600F110051868596835
:105E6000224603C20833AB421446F7D1FFF7AEF91E
:105E7000FFF7D0FF30B1102104481DF07BFB00EA92
:105E8000E07038BD38BD00BFDC5E0020745F0020CC
:105E9000044A054B10681B68184018BFC0F38040C7
:105EA000704700BF0C3900209C5F0020044A054B5E
:105EB00010681B68184018BFC0F38010704700BFFF
:105EC0000C3900209C5F0020044A054B10681B68B9
:105ED000184018BFC0F30020704700BF0C390020E5
:105EE0009C5F002007B501A8FFF7D8FA002809DB5E
:105EF000019820F4606020F0080040F00600019056
:105F0000FFF7DAFA03B05DF804FB07B501A8FFF765
:105F1000C5FA002809DB019820F4606020F00C002D
:105F200040F002000190FFF7C7FA03B05DF804FBF0
:105F300007B501A8FFF7B2FA002809DB019820F4A1
:105F4000606020F00E0040F420400190FFF7B4FAAA
:105F500003B05DF804FB07B501A8FFF79FFA00281E
:105F600009DB019820F4C16020F0060040F42840CD
:105F70000190FFF7A1FA03B05DF804FB07B50146F5
:105F800001A8FFF78BFA00280CDB019B23F4C06308
:105F900011B143F4007301E043F48063019301986D
:105FA000FFF78AFA03B05DF804FB000007B501A80B
:105FB000FFF774FA002807DB019B0548184040F002
:105FC0000A000190FFF778FA03B05DF804FB00BF08
:105FD000FBF1FFFD014B00221A707047A85F002003
:105FE00010B5074CD4F87C31142B08D003F11B02F8
:105FF00004EBC202013350609160C4F87C3110BDE3
:10600000D45F0020054BD3F8A80028B1D3F8D40002
:10601000012818BF00F1FF30704700BFD45F002097
:106020000A289DBF2A30024B53F8200000207047F9
:10603000D45F0020014B1860704700BFD05F002084
:10604000014B7B229A767047D45F002010B5044C38
:10605000237823B9142000212EF0CCFBF8E710BDE3
:10606000C05F0020014823F01FBE00BF557107002C
:106070002DE9F04107460E46012505F18054013C0B
:10608000240104F11008444501DAB4420BDB0A2074
:1060900023F0CCFDB44205F10105EEDB0A20BDE89A
:1060A000F04123F0C3BD395D024823F0ABFD01345C
:1060B000E9E700BF277207000A2810B51CD82A306C
:1060C0000E4B53F82040BCB10D490222204624F06B
:1060D00085F8014608B9102204E023786F2B06D119
:1060E000082200212046BDE8104024F081BA204655
:1060F000BDE8104022F08CBE002010BDD45F00200F
:106100002F72070000F020BD10B50B4C00F006FD0B
:10611000206818B113F09EFD002323604FF4C07275
:106120000021064823F012FD054B00221A70BDE83D
:10613000104021F067BA00BF54610020D45F0020F6
:10614000C05F002070B50C4C0C4E2C22002105467F
:10615000204623F0FBFC4FF4C0720021304623F0B0
:10616000F5FC074BA662236264620DB1054B1D600E
:10617000BDE8704000F0A8BC40A40020D45F00201F
:1061800089610400103900202DE9F041A2B0846A31
:106190002BF06EFA0206034605D52BF039FA2BF0E8
:1061A00021FA002305E020B10D2802D12BF048FA96
:1061B0000A23E361002B00F02381257F0A2D08D1FB
:1061C000D4F8A0301BB12344002283F820200A20F9
:1061D00046E0082D1BD1D4F8A030002B00F0108130
:1061E000D4F8A420002A00F00B81013BC4F8A030B1
:1061F00023440021013A83F820102846C4F8A42043
:106200002BF01EFA20202BF01BFA2846E0E01B2D75
:1062100000F0F680092D00F0F380032D0BD1002350
:106220000D20C4F8A030C4F8A43084F820302BF03E
:1062300007FA0A2037E0D4F8A4305A1C2344C4F8E3
:10624000A42083F82050D4F8A0309A4284BF0133B0
:10625000C4F8A030D4F8A0307F2B284640F2B88094
:106260002BF0EEF9D4F8A050002D3AD00023019382
:106270006A1E02E0019B01330193019B9D4224D9D8
:10628000019B234493F82030092B18D1019B9A429B
:10629000F0D10D202BF0D4F9802420202BF0D0F960
:1062A000013CFAD10D202BF0CBF9574B186823F0A5
:1062B000A9FC564B1B68986822F0A6FEA0E0019B43
:1062C000234493F82030202BE0D02A4604F120010B
:1062D00002A823F0A1FB22AB1D44002305F8803C5B
:1062E0000BE094F8D830002B5FD0802204F120011D
:1062F00002A823F091FB8DF887500023C4F8D43016
:106300000193019A0A2A07DC019A2A3244F82230C2
:10631000019A01320192F4E73D4902A823F0C8FF37
:1063200000285BD0D4F8D4305A1C2A33C4F8D420C7
:1063300044F82300D4F8A870002F4FD0354B93F8C1
:106340001A802646D6F8DC50002D47D0286840B188
:106350002B7B434503D8394623F056FD18B1103541
:10636000F4E70836EEE72A4923F0A2FFA0B1D4F8FB
:10637000D4305A1C2A33C4F8D42044F823002449CA
:10638000002023F095FFD4F8D4305A1C2A33C4F8E7
:10639000D42044F82300F0B9AB68FBB19847002340
:1063A000C4F8D430012384F8D8301B4B1B781BB1C0
:1063B000154B186823F026FC144B1B68986822F0D4
:1063C00023FE0023C4F8A430C4F8A030E37617E01D
:1063D0002BF036F914E00A2AD1D9DDE794F8203001
:1063E000002BE2D002A823F00DFC0C4823F00AFC9D
:1063F0000B4823F007FC0A2023F018FC0023D2E707
:10640000002022B0BDE8F081103900205044002067
:1064100084A30700D45F0020A85F0020E3A7070043
:1064200032720700194A38B501231370184B1B68E4
:10643000154603B19847174B174C186823F0E2FB39
:10644000164B1B68986822F0DFFD23681BB91448BF
:1064500013F0CEFB2060206808B113F051FB114B04
:1064600001221A702B783BB10F48FEF721FD012065
:1064700000212EF0BFF9F5E7206808B113F053FBB7
:1064800021F0B8F8BDE838402EF08AB9A85F0020A6
:10649000D05F0020103900205461002050440020BB
:1064A00045720700C05F002040A40020024B1B681B
:1064B00003B11847704700BFC85F0020024B1B683C
:1064C00003B11847704700BFB05F0020024B1B6844
:1064D00003B11847704700BFB45F002008B5084BF0
:1064E0001B785BB9074B1B7843B1FFF7EFFF21F037
:1064F000DFF918B9BDE808402BF08AB808BD00BF25
:10650000A85F0020C05F0020024B1B6803B1184742
:10651000704700BFBC5F0020024B1B6803B11847E7
:10652000704700BF5861002008B5FFF7F5FF02482B
:10653000BDE8084023F0B8BB48720700024B1B6857
:1065400003B11847704700BFAC5F0020024B1B68C7
:1065500003B11847704700BFB85F0020024B1868AE
:1065600000B10047704700BFA45F0020024B1B68CA
:1065700003B118471846704768610020FFF7F6BF5F
:10658000024B1B6803B1184718467047C45F0020D0
:10659000024B1B6803B11847704700BF64610020BD
:1065A00008B508B90E4B1868FFF788FF0D48FFF7CC
:1065B000EFFF0D490D48FFF7C9FF0D490D48FFF7E3
:1065C000C5FF0D490D48FFF7C1FF0D490D48FFF705
:1065D000BDFF0D490D48BDE80840FFF7B7BF00BF3C
:1065E00010390020656004004D72070070610020C2
:1065F000517207007439002056720700C439002018
:106600005A72070054390020A782070080610020D9
:10661000024B1B6803B11847704700BF5C61002044
:1066200070B5FFF79BFF02280CD10120FFF79EFFFA
:1066300040B105221C4923F0D1FD18B9BDE87040D6
:10664000FFF7E6BF19481A4D23F02EFB194823F037
:106650002BFB2E46D5F8DC40F4B10C34012354F862
:106660000C2C9AB1B17E227891420DD323B1D5F88A
:10667000E010114823F0C6FA54F8082C54F80C1C0A
:106680000E4823F0BFFA00231034E8E713B90A20BC
:1066900023F0CCFA0835DDE7094823F005FB09486B
:1066A000BDE8704023F000BB607207006572070010
:1066B000D45F0020887207009C720700B287070031
:1066C000B5720700C0720700034B987EA0F17B03F0
:1066D00058425841704700BFD45F0020014B1878E2
:1066E000704700BF60610020184B194A1A60194BAF
:1066F000194A1A60194B1A4A1A601A4B1A4A1A6038
:106700001A4B1B4A1A601B4B1B4A1A601B4B1C4A34
:106710001A601C4B1C4A1A601C4B1D4A1A601D4B08
:106720001D4A1A601D4B1E4A1A601E4B1E4A1A60F3
:106730001E4B1F4A1A601F4B1F4A1A601F4B204AEC
:106740001A60204B01221A70704700BFB05F002012
:1067500045610400C85F0020A1650400B45F00200B
:10676000096104006C6100204D600400BC5F0020E2
:106770000561040058610020D55F0400AC5F002073
:10678000DD640400B85F0020E15F0400A45F002026
:1067900005600400CC5F00207D6504006861002076
:1067A00021600400C45F0020B9600400A05F0020E5
:1067B0007160040064610020356004005C610020A9
:1067C000416004006061002030B54FF08053002428
:1067D000196E5B6E85B044EA0102CDE900239DE8A5
:1067E000030002AD85E80300074823F00BFA295D9A
:1067F0000648013423F006FA082CF8D10A2005B027
:10680000BDE8304023F012BAF8720700FD720700AD
:1068100038B50546FFF7A2FE022805D00020FFF795
:10682000A5FE0146414822E00120FFF79FFE10B17E
:106830000120FFF7A5FE0446FDF7BEFD20B93C4848
:10684000BDE8384023F030BA032D6ED8DFE805F0FC
:1068500002132F3D4FF0A04204F5E073032142F8EC
:1068600023100123A3403348C2F80C352146BDE86C
:10687000384023F0C7B9A30003F1A0430022C3F8B6
:106880000027D3F800372C4813F0010F4FF0A04336
:1068900017BF0122D3F81025D3F80435A24015BF45
:1068A0001A40E240E24002F00102214639E04FF096
:1068B000A04204F5E073032142F823100123A34012
:1068C000C2F8083521461D48D1E74FF0A04304F532
:1068D000E0724FF0A04053F82220D20749BFD3F80E
:1068E0000435D3F810250122A24048BF1A404FF0CA
:1068F000010303FA04F1D0F8043558BFE24021EA5D
:10690000030548BFE24003EA010358BF02F0010259
:10691000C0F80855B2FA82F2C0F80C35084852099E
:106920002146BDE8384023F06DB938BD1373070028
:1069300024730700327307003D7307004973070093
:10694000547307000320FFF763BF0220FFF760BF07
:106950000120FFF75DBF0020FFF75ABFBFF34F8F45
:106960000549064BCA6802F4E0621343CB60BFF3EB
:106970004F8F00BFFDE700BF00ED00E00400FA0507
:1069800008B5FFF7EBFFFDF7A7BEFDF765BE13F0F7
:10699000B7B9FDF7C9BE000008B52AF0B9FB012858
:1069A00006D11CF005F902202AF0C2FB064807E0D8
:1069B000022807D11CF0FCF801202AF0B9FB03489B
:1069C00023F072F9FFF7CAFF927307009C73070068
:1069D00010B5002003F090F80446D0F8040E2CF017
:1069E0007DF9D4F8043E4FF0A04203F5E073022194
:1069F00042F823104FF40C610522A4F8A01DA4F85E
:106A0000A22D204600F0FDFB204600224FF0FF3172
:106A100001F09EF8D4F8003E98472046BDE81040AB
:106A200000F0EDBB08B519F03BFBBDE808401DF0D8
:106A300001B8000008B5124823F036F920F0DAFD5D
:106A40002AF090FD2AF04AFF2AF0AEFC4FF0A04356
:106A50000222C3F82C27C3F80C27FDF722FDFEF70E
:106A600007F82AF0A9FA00F1FF1000F57F4020F0A6
:106A70007F402AF0D3F9FDF76DFDFFF76FFF00BFF0
:106A8000A673070008B5FFF7A3FFFFF7CBFFFFF7DB
:106A9000D1FFFDF779BC10B5FFF716FE044630B103
:106AA000FDF7A0FEFDF740FEFDF716FE01E0FDF745
:106AB00099FE204603F0D0F9204617F001FABDE810
:106AC00010401AF039BB00001FB54FF4C06022F02F
:106AD000A9FC0B4B0B4918600B4B03930B4B029318
:106AE0004FF4C0638DE809000022094B10202DF0FF
:106AF00045FE0849084805B05DF804EBFFF726BDE0
:106B0000906100202564040098610020406200200C
:106B100045720700037507001439002038B5084C8A
:106B200023685BB1074D28682DF062FE28682DF0C0
:106B300039FE206822F07EFC0023236038BD00BFB0
:106B40009061002040620020014B18682DF03EBE8D
:106B50004062002010B5014430240B1A002B0EDDDA
:106B60004AB102F00F03092BCCBF3733303301F8A1
:106B7000013C120901E001F8014C0139EDE710BDBB
:106B800070B50D46144600210646284622F0DEFF69
:106B900064000021A1421CD0705CA0F16103052BB0
:106BA00002D8A0F157030AE0A0F13003DAB2092AB3
:106BB00005D9A0F14103052B0DD8A0F13703CA0771
:106BC0004FEA610258BF1B01A85C0343AB5401317B
:106BD000E0E7002070BD4FF0FF3070BDD0F8A80D89
:106BE0007047D0F8AC0D70471FB52AB961F07F012E
:106BF0008DF80C10012111E07F2A61F03F018DF822
:106C00000C1083BF62F07F01D2098DF80D108DF852
:106C10000D2092BF02218DF80E200321069A0092CA
:106C200003AA01F03AFF05B05DF804FB1FB50A4363
:106C3000130A8DF80C208DF80D30120C03AB8DF873
:106C40000E200093082203232621FFF7CDFF05B075
:106C50005DF804FB1FB50A43130A8DF80C208DF86C
:106C60000D30120C03AB8DF80E2000930C22032381
:106C70002621FFF7B9FF05B05DF804FB13B51446F4
:106C80001A460B44B3F5806F06DC8B1E0094092175
:106C9000FFF7AAFF002001E04FF0FF3002B010BD67
:106CA0001FB51AB98DF80C10012111E07F2A41F0AF
:106CB00040018DF80C1083BF62F07F01D2098DF87E
:106CC0000D108DF80D2092BF02218DF80E200321AA
:106CD000069A009203AA01F0EBFE05B05DF804FBF2
:106CE00013B51C460091134611212246FFF7D8FF29
:106CF00002B010BD1FB503AB009328220323272148
:106D0000FFF7CEFF9DF80D309DF80E0003EB00203D
:106D10009DF80C3003EB0020C30246BF6FEA003041
:106D20006FEA1030C0F3140005B05DF804FB07B53E
:106D30000523009100221721FFF7B2FF03B05DF891
:106D400004FB07B50523009100221521FFF7A8FFDA
:106D500003B05DF804FB07B505230091002206216E
:106D6000FFF79EFF03B05DF804FB1FB503AC009472
:106D7000042392B289B2FFF793FF48B903234FF07F
:106D8000FF30E25C13F1FF3302EB0020F9D201E0A7
:106D90004FF0FF3004B010BD00221146FFF7E5BFF1
:106DA0001FB503AB009392B2022389B2FFF778FFBD
:106DB00038B99DF80D009DF80C3003EB002080B22F
:106DC00001E04FF6FF7005B05DF804FB1FB50DF153
:106DD0000F03009392B2012389B2FFF761FF9DF880
:106DE0000F0005B05DF804FB1FB504AC92B204F8C7
:106DF000013D89B200940123FFF7F6FE04B010BDF7
:106E00001FB58DF80C301B0A8DF80D3003AB0093C5
:106E100092B2022389B2FFF7E7FE05B05DF804FBEA
:106E20000B4641F604022E21FFF7EABF0B46002273
:106E30001821FFF7E5BF1FB51C0A8DF80C308DF83F
:106E40000D401C0C1B0E8DF80F3003AB009392B25B
:106E5000042389B28DF80E40FFF7C6FE04B010BDC2
:106E600013B500F55663044600930B2201232A2133
:106E7000FFF7BAFED4F8643D00221E21204602B07E
:106E8000BDE81040FFF7D7BF08B5D0F8B43D0B43BD
:106E900043EA825308210022FFF7CDFF002008BDFE
:106EA00070B500220C4604210546FFF75EFF3CB199
:106EB000094A04F4FF73024043F00103134301E065
:106EC000064B0340C5F8BC3D284600220421BDE81E
:106ED0007040FFF7B0BF00BF01FE47F0FEFF47F074
:106EE0000B4602220321FFF78BBF0B460022032132
:106EF000FFF786BF30B585B004AC0B0A04F8041D5B
:106F00008DF80D300094022304222D210546FFF751
:106F10006BFE03238DF80C300094012306222D21F3
:106F20002846FFF761FE00238DF80C300094012302
:106F300006222D212846FFF757FE0A222D2128463A
:106F4000FFF713FF05B030BD2DE9F04F85B004AC5D
:106F5000032304F8043D0E4600942D21012307224B
:106F60000546FFF741FE06F00F01052900F2E1801A
:106F7000DFE801F01D03080F141841F224064FF05A
:106F80000E0803E041F624064FF0030849F22023DF
:106F900010E041F624064FF04E08F7E700264FF0C8
:106FA000030806E024264FF00308002302E0002631
:106FB000B04633468DF80C301B0A8DF80D30002298
:106FC00002232D2100942846FFF70EFE4FF00809FA
:106FD000012306222D21009428468DF80C90FFF7FE
:106FE00003FE4FF4FA6029F05FFE4FF0020A01231E
:106FF00007222D21009428464FF0880B8DF80CA015
:10700000FFF7F2FD012306222D21009428468DF87A
:107010000CB0FFF7E9FD6FF07F038DF80C3006220E
:1070200001232D2100942846FFF7DEFD00270123D0
:1070300006222D21009428468DF80C70FFF7D4FD10
:1070400005238DF80C30072201232D2100942846BA
:10705000FFF7CAFD53463A462D21009428468DF885
:107060000C808DF80D70FFF7BFFD012306222D2146
:10707000009428468DF80C90FFF7B6FD4FF4FA60A7
:1070800029F012FE04238DF80C30072201232D2154
:1070900000942846FFF7A8FD012306222D21009425
:1070A00028468DF80CB0FFF79FFD6FF07F038DF839
:1070B0000C30062201232D2100942846FFF794FD71
:1070C0004FF00108012306222D21009428468DF857
:1070D0000C70FFF789FD434607222D2100942846B6
:1070E0008DF80C80FFF780FD8DF80C6053463A4612
:1070F0002D2126FA09F6009428468DF80D60FFF739
:1071000073FD434606222D21009428468DF80C90ED
:10711000FFF76AFD4FF4FA6029F0C6FD009443467C
:1071200007222D2128468DF80C70FFF75DFD3846AB
:1071300001E04FF0FF3005B0BDE8F08F7FB504AC43
:107140000B0E04F8041D8DF80F300B0C8DF80E306B
:107150000B0A16468DF80D300094042300222D21D1
:107160000546FFF741FDC6F302238DF80D3000946C
:10717000022304222D2128468DF80C60FFF734FDF0
:1071800040238DF80C300094012306222D2128463F
:10719000FFF72AFD00238DF80C300094012306220E
:1071A0002D212846FFF720FD02AC4FF47A7029F01C
:1071B0007BFD0123009408222D212846FFF770FD56
:1071C0009DF80830DB07F0D5002004B070BD30B565
:1071D00085B004AC002304F8043D05460094012367
:1071E00002222C21FFF700FD0222009401232C2112
:1071F00028468DF80C20FFF7F7FC05B030BDFFF7EF
:10720000E6BF30B50B4685B015462C21002204465A
:10721000FFF7F6FD04AB062203F8045D2C21009372
:1072200020460123FFF7E0FC05B030BD70B5042215
:107230000D4636210446FFF798FD15B140F4006372
:1072400001E020F40063204604223621BDE87040AE
:10725000FFF7F1BD30B585B004AB6D2203F8012D09
:107260000D46009340F6060201232E210446FFF747
:10727000BBFC15B140F2076301E041F2076341F640
:1072800006022E212046FFF7BBFD05B030BD0000F1
:107290002DE9F0430E784F784A79854B013F042E53
:1072A00085B004460D4633F81280C0F8D87D05D06D
:1072B000F31FD3F1000949EB030901E04FF0010985
:1072C0002B7884F8B03DEA79D4F8BC3D32B943F468
:1072D0008003C4F8BC3D4FEAD80803E023F48003E0
:1072E000C4F8BC3D2B7A84F8B13D2B7AD4F8BC2D80
:1072F0001B0403F440331343C4F8BC3D00220421B3
:107300002046FFF798FD434642F604025FFA87F8ED
:107310002E212046FFF774FD41462046FFF79AFFD5
:10732000644B9F5D644B07EB870213440093072275
:1073300005232B212046FFF757FC604B4B4400935D
:107340000B22012328212046FFF74EFC5C4B0C2228
:1073500053F8273028212046FFF76DFDEA79AB79F5
:1073600003EB4203574A272132F81330204602220A
:10737000FFF746FD544B042233F8183027212046EE
:10738000FFF73EFDEB7933B964230622272120461F
:10739000FFF736FD1BE0AB78042B16BF2823102324
:1073A0008DF80F304FF0060218BF20234FF0270151
:1073B0000DF10F07204608BF8DF80F30FFF720FDB5
:1073C00000970123262227212046FFF70DFCEB78AA
:1073D0003E4A03EB8803272152F823302046082237
:1073E000FFF729FD6B8941F24102934204D020222C
:1073F00027212046FFF704FD6B8933B941F2410391
:10740000202227212046FFF7FBFC314F3B6807EB8A
:1074100048070C2223212046FFF70DFD0422BB88DC
:1074200023212046FFF7ECFCAA7962B1EA79294BC7
:10743000134400930022212101232046FFF7D4FBAF
:107440000122032100E01146687906F00F0336019E
:1074500043EAC063F6B21E436B7828799B0403F4B9
:10746000402380051E4300F0F8600905064301F43F
:10747000401153040E4303F40033334300221F2111
:107480002046FFF7D8FCAA786B781343EA795203B9
:1074900042F4004242EA0343C4F8B43D002208210A
:1074A0002046FFF7C8FC002005B0BDE8F08300BF10
:1074B0001C780700D8770700A07707004E780700F0
:1074C00004780700CC770700BE770700E477070051
:1074D000C4770700E077070070B500220D4604214D
:1074E0000446FFF742FCC4F8BC0D15B120F480201F
:1074F00001E040F48020C4F8BC0DD4F8BC3D204627
:1075000000220421BDE87040FFF795BCD0F8BC3DD7
:1075100039B123F48053C0F8BC3D012380F8B83D55
:1075200005E043F48053C0F8BC3D80F8B81DD0F8A6
:10753000BC3D00220421FFF77EBC1FB5D0F8BC3D46
:1075400011B143F0005301E023F00053C0F8BC3DFB
:1075500004AB90F8BF2D03F8012D04210093032202
:107560000123FFF741FB05B05DF804FBC0F8E01D07
:10757000C0F8E42D7047F0B585B003AC11F00107F9
:1075800005460E4600944FF0020330D0002226211B
:10759000FFF786FB9DF80D2004AB42F0140203F8C0
:1075A000032D009301231A4626212846FFF71CFBD2
:1075B00001230222362100942846FFF771FB9DF833
:1075C0000C30009463F07B038DF80C300222012311
:1075D00036212846FFF708FB10238DF80C300123D5
:1075E0008DF80D30009402232822362113E03A460C
:1075F0002621FFF755FB9DF80D30009423F015036D
:107600008DF80D309DF80C3023F040038DF80C30D0
:107610003A46022326212846FFF7E6FAB30713D598
:107620000F238DF80C302A2201233621009428469E
:10763000FFF7DAFA00238DF80C30009401232A2298
:1076400036212846FFF7D0FA05B0F0BD7FB503AC70
:107650000E4602230094002236210546FFF720FB48
:107660000D2E4AD8DFE806F00F0716494949491D93
:107670002C4949373C4100238DF80C309DF80D30E2
:1076800023F0010319E09DF80C3023F0030343F0CD
:10769000010330E09DF80C3023F0030343F00203B4
:1076A00029E09DF80C3023F04C0343F048038DF89B
:1076B0000C309DF80D3063F07F038DF80D301CE029
:1076C0009DF80C3023F04C038DF80C309DF80D30F4
:1076D00003F07F03F1E79DF80D3043F00203ECE780
:1076E0009DF80D3023F00203E7E79DF80C3023F0FE
:1076F000300343F020038DF80C3000940123002266
:1077000036212846FFF770FA0DF10D03009301238F
:107710001A4636212846FFF767FA04B070BDF8B55F
:1077200004460D4600211646FFF790FF0121204632
:10773000FFF70AFC0A27324629462046FFF7FEFCDF
:1077400031462046FFF7D6FB854201D0013FF2D1FA
:1077500004212046FFF7F8FB31462046FFF7CAFB1D
:10776000002106462046FFF7EFFBA81B18BF4FF08D
:10777000FF30F8BD30B585B003238DF80D3004AB74
:10778000012503F8045D04460093002202233621FC
:10779000FFF72AFA4FF4004306222D212046FFF777
:1077A0002FFB4FF47A7029F07FFA20462946FFF725
:1077B0004DFF002005B030BDF0B5002585B0042791
:1077C00080F8D45D80F8B85DC0F8D85DC0F8DC5DA5
:1077D00080F8D55DC0F8E05DC0F8E45D04460E4673
:1077E0008DF80E70FFF7D8FA374BC4F8A40D984205
:1077F00065D129462046FFF729FF0DF10E032A46E1
:107800000093242101232046FFF7EEF91E21204694
:10781000FFF770FB3207C0F3072084F8B20D05D5DF
:1078200039462046FFF766FBC4F8DC0D94F8DC3DD2
:107830005BB104AB022203F8012D2D21009312222B
:1078400001232046FFF7D0F901E0C4F8DC3D062112
:107850002046FFF74FFB0721C4F8A80D2046FFF78D
:1078600049FB0821C4F8AC0D2046FFF743FB092172
:1078700084F8D60D2046FFF73DFB330584F8D70D7D
:1078800003D52046FFF776FF0CE00522362120467F
:10789000FFF786FA4FF6FF530340052236212046B4
:1078A000FFF7AEFA01212046FFF7D0FE00220421A7
:1078B0002046FFF75AFAC4F8BC0D002001E04FF053
:1078C000FF3005B0F0BD00BF3001CADE10B50021A9
:1078D0000446FFF7BBFE2046002304223621BDE804
:1078E0001040FFF78DBA0B4601220A21FFF7A3BA19
:1078F0007FB501F0020304460D4603F0FF020DF1CF
:107900000F0613B98DF80F200BE080238DF80F3090
:107910000096012300220D21FFF766F9012384F868
:10792000D53D15F0010F9DF80F3005F0040526D068
:1079300015B943F0060301E043F007038DF80F305B
:10794000002201230D2100962046FFF74DF9032266
:107950000F212046FFF724FA10F481601FD0402346
:107960008DF80F300096012300220D212046FFF7ED
:107970003BF9002384F8D53D4FF0FF300FE015B9F7
:1079800043F0020301E043F003038DF80F3000964B
:10799000012300220D212046FFF726F9002004B024
:1079A00070BD08B502220F21FFF7FAF900F01000B0
:1079B00008BD1FB504AB402203F8012D0D21009333
:1079C00000220123FFF710F905B05DF804FB1FB595
:1079D00004AB082203F8012D0D210093002201239E
:1079E000FFF702F905B05DF804FB1FB50DF10E03BA
:1079F0000093032201230F210446FFF751F99DF85C
:107A00000E3083EA43031B0609D504AA012302F8BA
:107A1000013D0D21009220460322FFF7E5F804B056
:107A200010BD0000F0B585B004AD402300220E214A
:107A3000044605F8013DFFF798F9074601F016F8EE
:107A4000002306461A460E212046FFF7F4F900955A
:107A5000012300220D212046FFF7C6F80C4B00221F
:107A60000F212046FFF7E7F92046FFF7BEFF3B4610
:107A700000220E212046FFF7DEF9304600F0F8FF25
:107A8000002384F8D53D84F82A3D05B0F0BD00BF41
:107A9000F8FF273430B5002285B00D4691420CBF67
:107AA0004FF480734FF440730D2104468DF80F207E
:107AB000FFF7A6F90DB9002011E00DF10F030093B7
:107AC000032201230F212046FFF7EAF89DF80F302B
:107AD0001B07F0D52046FFF76CFF4FF0FF3005B0D5
:107AE00030BD7FB50DF10F050E4600950123032231
:107AF00004210446FFF7D4F886B1334600220C2156
:107B00002046FFF77DF99DF80F3043F010038DF804
:107B10000F30D4F8BC3D43F0805309E09DF80F309E
:107B200023F010038DF80F30D4F8BC3D23F08053C0
:107B3000C4F8BC3D00950123032204212046FFF731
:107B400053F804B070BD0B4624222721FFF758B923
:107B5000F8B5174604460D4600F088FF0022064699
:107B60000E212046FFF701F917B140EA050301E0B5
:107B700020EA0503204600220E21FFF75CF930467B
:107B8000BDE8F84000F074BF7FB504AC022304F8F0
:107B9000013D0E460094012300222F210546FFF7E8
:107BA00023F846B10123009400222F2128468DF8A6
:107BB0000F30FFF719F804B070BD38B504220C4639
:107BC0002F210546FFF7D1F8C0F30B03C0F30B409C
:107BD0002380608008222F212846FFF7C6F8C0F3D3
:107BE0000B03C0F30B40A380E0800C222F2128461A
:107BF000FFF7BBF8C0F30B03C0F30B402381608198
:107C000010222F212846FFF7B0F8C0F30B43C0F332
:107C10000B00E381A08114222F212846FFF7A5F84D
:107C2000C0F30B43C0F30B006382208218222F2184
:107C30002846FFF79AF8C0F30B03C0F30B40A3826A
:107C4000E08238BD30B585B004ACE02304F8013DD6
:107C500003220094012336210546FEF7C5FFF023D9
:107C60008DF80F3000940123032236212846FEF7B9
:107C7000BBFF05B030BD00007FB5002280F8C42DE9
:107C80000F210446FFF771F842050546C4F8C00D00
:107C90002BD594F8B86D46BB00F46063B3F5606F04
:107CA00023D02046FFF7BEFE2046FFF7CBFF25F08E
:107CB0006F45D4F8BC3D25F47F0525F47F459B0036
:107CC00025F0070507D54FF4807332460D21204675
:107CD000FFF796F809E0032384F8C43DD4F8E43DA7
:107CE0001BB1214604F55C60984715F4804173D0C0
:107CF0006E0563D515F480120BD02046FFF792FE77
:107D00002046FFF79FFFD4F8BC3D9D004ED40523CD
:107D1000B8E010212046FFF743F894F8B13D13B1C5
:107D2000C0F3090001E000F07F000223A4F8C60DB3
:107D300084F8C43D00224FF4DE430F212046FFF7B4
:107D40007AF894F8B83D002B00F09E800DF10F02F8
:107D5000012300920F21032220468DF80E30FEF7FA
:107D60009FFF9DF80F30C3F3801384F8293DD4F8AA
:107D7000E43D1BB1214604F55C6098472046FFF7BF
:107D800010FE48B90DF10E030093032201230D21CB
:107D90002046FEF729FF86E02046FFF743FE2046F7
:107DA000FFF750FFD4F8BC3D98007CD54FF48073AA
:107DB00000220D212046FFF723F874E0D4F8BC3DE3
:107DC000990005D42046FFF72DFE2046FFF73AFF25
:107DD000002384F8D53D48E0344A2A4072B1344B40
:107DE0000A4620460F21FFF726F82A064CBF01233A
:107DF0000D2384F8C43DD4F8E03D47E015F4003687
:107E000012D033460F212046FFF715F8042384F8DB
:107E1000C43DD4F8E43D1BB1214604F55C609847AD
:107E2000002384F8D53D3EE0224A2A40A2B31346FF
:107E30000F2132462046FEF7FEFF94F8B83D84F845
:107E4000D56D4BB1D4F8BC3D9B00204602D5FFF761
:107E5000E9FD01E0FFF7C9FD2046FFF7F3FEEE0460
:107E600001D508230EE0280401D503230AE0E90325
:107E700001D5092306E06A0101D50A2302E0AB021D
:107E8000F3D50B2384F8C43DD4F8E43D5BB121461F
:107E900004F55C60984706E015F0805303D00F218D
:107EA0002046FEF7C8FF04B070BD00BF8000001080
:107EB000F8000010009027247FB504AD002604468A
:107EC00005F8046DFFF702FD334632462C212046AB
:107ED000FEF796FF012306222C2100952046FEF78F
:107EE00083FE2046FFF773F9009501230322362114
:107EF0002046FEF7D5FE9DF80C30009503F00F03E9
:107F00008DF80C300322012336212046FEF76CFE4B
:107F10004FF47A7028F0C8FE9DF80C30009563F09D
:107F20000F038DF80C300322012336212046FEF783
:107F30005BFE84F8D56D04B070BD7FB50DF10F0503
:107F40000C46009501230E222B210646FEF7A8FEC3
:107F50009DF80F30009523F01F0304F01F041C430D
:107F60000E2201232B2130468DF80F40FEF73CFEF8
:107F700004B070BD30B585B004460D46FFF7A6FCD1
:107F8000274B5D5D274B05EB8502134400930722C9
:107F900005232B212046FEF727FE234B0C2253F806
:107FA000253028212046FEF746FF4FF4FF1300221C
:107FB00028212046FEF73FFF04AD1C4B002228215C
:107FC0002046FEF738FF222305F8043D00220095E5
:107FD000012336212046FEF707FE07238DF80C30DB
:107FE00001231A46009536212046FEF7FDFD0023A9
:107FF000262236212046FEF703FF13238DF80C308E
:108000000C22012300952A212046FEF7EDFD204693
:1080100094F88B1DFFF791FF002005B030BD00BF25
:10802000D8770700A07707000478070000FF5F00FB
:1080300030B5044685B00D46FFF748FC4FF4FF13FA
:10804000002228212046FEF7F6FE124B00222821AE
:108050002046FEF7F0FE20460221FFF7F7FA204601
:108060000D21FFF7F3FA032D8CBF2B4604230022CA
:108070000A212046FEF7DFFE04AB102203F8042D90
:108080002F210093242201232046FEF7ADFD05B0E9
:1080900030BD00BF00FF5F001FB504AB002203F836
:1080A000042D2F21009324220123FEF79DFD05B00E
:1080B0005DF804FB1FB504AB102203F8042D2F213B
:1080C000009324220123FEF78FFD05B05DF804FB29
:1080D0001FB503AB0093242201232F21FEF7E0FDFF
:1080E0009DF80C00C0F3001005B05DF804FBF0B57E
:1080F00085B004AC802304F8043D0F46012311220F
:10810000282100940546FEF76FFD0A238DF80C30F8
:1081100012220123282100942846FEF765FD0F2333
:108120008DF80C3000940123122228212846FEF7F6
:108130005BFD012F4FF000061DD13B4632460094F7
:108140002A2128468DF80C60FEF74EFD3B4632464C
:108150002A21009428468DF80C70FEF745FD4FF457
:108160007A7028F0A1FD0094022303222A212846D8
:10817000FEF796FD21E031462846FFF767FA012712
:10818000012332462A21009428468DF80C60FEF720
:108190002BFD3B4632462A21009428468DF80C7070
:1081A000FEF722FD2A210094022303222846FEF72F
:1081B00077FD39462846FFF749FA0022009401234B
:1081C0002A2128469DF80C609DF80D708DF80C2032
:1081D000FEF70AFD46EA072005B0F0BD00000000EA
:1081E00008B590F8D70D081A1FF012FF07A3D3E9BE
:1081F00000231FF073FF0022034B1FF0BDFD20F092
:1082000065FA00EE100A08BD000037403D0AD7A30A
:10821000703DF23F0000000008B590F8D63D9FED9C
:108220000E7AC91A07EE901AF8EEE77A67EE877AA7
:1082300017EE900A1FF0FEFE05A3D3E900231FF0FE
:108240009BFD20F043FA00EE100A08BDAFF300805A
:108250006666666666660A401069BD3B73B5D0F80F
:10826000F03D04464FF000500E4698472046FFF779
:10827000D9FB00221C492046FFF76AFC2046FFF785
:108280001BFE0023C4F8E03DC4F8E43D4FF000506D
:10829000D4F8F03D98474FF400612046FFF78CFA80
:1082A0000546F8B903212046FFF765F9294620461F
:1082B000FFF743F929462046FFF728F92A463146B9
:1082C0002046FEF7E5FF94F8603DD4F8645D8DF834
:1082D000003001212046FFF7FFF86946204601954E
:1082E000FEF7BEFD02B070BD80D023242DE9F74F0C
:1082F00000228A4636210446FEF768FD0422362114
:1083000083462046FEF74CFD00220090282120469F
:10831000FEF72BFD01230190002236212046FEF7B7
:1083200063FD0023042236212046FEF769FD2B4B16
:10833000002228212046FEF77EFD2223002236213E
:108340002046FEF751FD802507264FF496794FF021
:1083500000082F467F083D43EBB20B222A2120461E
:10836000FEF742FDBC2308222A212046FEF73CFDF1
:10837000BD2308222A212046FEF736FD0A2028F0D8
:1083800093FC09222A212046FEF70AFDC0F30B00C8
:10839000CAEB0003002BB8BF5B424B45BCBFA846ED
:1083A000994650458CBF3D43BD43013ED2D15B460B
:1083B000324620463621FEF717FD009B0422362167
:1083C0002046FEF71DFD019B324628212046FEF780
:1083D00032FD404603B0BDE8F08F00BF00A71F008C
:1083E00000222DE9F0410746104627FA02F5C5F3B1
:1083F000421C05F01F064FF0010E0D467319A3F144
:108400000408B8F1100F0EF1FF3406D9142BCCBFBD
:10841000053D05350EF1010EF0E76444E4B2DBB230
:1084200043EA441393400832202A40EA0300DCD197
:10843000BDE8F081F8B51A4B1C5C1A4B2DED028B90
:108440000D4603EBC40451EC100B53EC112BF0EE72
:10845000628AB0EE428A1FF08DFCD4E900231FF03F
:108460003DFE9FED112A38EE428A064668EE287AD4
:108470000F4617EE900A1FF0DDFD32463B461FF017
:108480007BFC0B4602461FF077FC20F0D7F8BDECD2
:10849000028B01462846BDE8F840FFF7A1BF00BFA8
:1084A000D877070070770700333353402DE9F04742
:1084B00000228A4636210446FEF788FC0422362133
:1084C00081462046FEF76CFC00222821804620468B
:1084D000FEF74BFC01230022362107462046FEF71B
:1084E00083FC0023042236212046FEF789FC224B20
:1084F000002228212046FEF79EFC2223002236215E
:108500002046FEF771FC0A26002553460B222A213D
:108510002046FEF769FCBC2308222A212046FEF7EC
:1085200063FCBD2308222A212046FEF75DFC0A20B9
:1085300028F0BAFB09222A212046FEF731FC013E31
:10854000C0F30B000544E0D14B46324620463621AD
:10855000FEF74AFC4346042236212046FEF750FC33
:108560003B46324628212046FEF765FC0A20B5FB33
:10857000F0F080B2BDE8F08700A71F0038B50446D0
:10858000D0F8F03D4FF000500D46984720460021AE
:10859000FFF75CF829462046FEF7ACFC01210546B2
:1085A0002046FFF753F8D4F8F03D4FF000409847CD
:1085B000284638BD70B5D0F8F03D05460E46144645
:1085C0004FF0005098472146B2B22846FFF7A7F86F
:1085D000D5F8F03D04464FF000409847201C18BFE6
:1085E0000120404270BD38B50D461C211446FFF7EE
:1085F000C5FF431E03339FBF80B228802080002028
:1086000088BF4FF0FF3038BD38B50D461C211446E9
:10861000FFF7B4FF431E03339FBF000C2880208068
:10862000002088BF4FF0FF3038BD2DE9F843894660
:108630001921984606461746FFF7A0FF1D2105465B
:108640003046FFF79BFF1E2104463046FFF796FF9A
:108650006B1E033311D8631E03330ED8431E03333E
:108660000BD8230CC9F80050A8F80030089B000C68
:108670001C8038700020BDE8F8834FF0FF30BDE863
:10868000F88310B50C461E21FFF778FF30F47F43C6
:108690001DBF00F01F00207000204FF0FF3010BD04
:1086A000F8B50C461921054616461F46FFF766FF2A
:1086B0000138033008D9224619212846FFF77AFFEE
:1086C000002828DB002400E001241D212846FFF7B4
:1086D00055FF013803300AD9BDF918201D2142EA9F
:1086E00007422846FFF766FF002814DB00241E21FE
:1086F0002846FFF743FF30F47F430BD19DF81C2041
:1087000042EA064202431E212846FFF753FF00EAD1
:10871000E070F8BD2046F8BD70B50E461C21044639
:108720001546FFF72BFF0138033008D945EA06420A
:108730001C212046FFF73EFF00EAE07070BD0120DB
:1087400070BD000038B50546084821F0ADFA002498
:1087500021462846FFF712FF21460246013404480D
:1087600021F050FA1F2CF3D138BD00BF0875070067
:10877000147507002DE9F043002487B007460D4625
:108780001646A0460DF110091FFA88F105230022B4
:10879000CDF800903846FEF783FA9DF81030039329
:1087A0009DF8113002939DF8123001939DF813301B
:1087B0000093311B4346A84A281921F08FFA04443C
:1087C000311B2819A54A21F089FA08F10108B8F1EE
:1087D0003F0F0444D8D14FF00008424620213846CC
:1087E000FEF7C3FA311B0190CDF8008020239C4A8C
:1087F000281921F073FA0444311B2819974A21F0F3
:108800006DFA08F10408B8F1240F0444E5D14FF0E3
:108810000008424621213846FEF7A7FA311B019095
:10882000CDF8008021238E4A281921F057FA0444FC
:10883000311B2819894A21F051FA08F10408B8F1CE
:10884000300F0444E5D14FF000084246232138465A
:10885000FEF78BFA311B0190CDF800802323804A6C
:10886000281921F03BFA0444311B28197B4A21F0D6
:1088700035FA08F10408B8F1240F0444E5D14FF0AB
:108880000008424624213846FEF76FFA311B01905A
:10889000CDF800802423724A281921F01FFA0444DD
:1088A000311B28196D4A21F019FA08F10408B8F1B2
:1088B000100F0444E5D14FF0000842462721384606
:1088C000FEF753FA311B0190CDF800802723644A4C
:1088D000281921F003FA0444311B28195F4A21F0BA
:1088E000FDF908F10408B8F1300F0444E5D14FF068
:1088F0000008424628213846FEF737FA311B01901E
:10890000CDF800802823564A281921F0E7F90444BD
:10891000311B2819514A21F0E1F908F10408B8F196
:10892000440F0444E5D14FF0000842462A2138465E
:10893000FEF71BFA311B0190CDF800802A23484A2C
:10894000281921F0CBF90444311B2819434A21F09E
:10895000C5F908F10408B8F1140F0444E5D14FF04B
:10896000000842462B213846FEF7FFF9311B0190E3
:10897000CDF800802B233A4A281921F0AFF904449E
:10898000311B2819354A21F0A9F908F10408B8F17A
:10899000180F0444E5D14FF0000842462F21384615
:1089A000FEF7E3F9311B0190CDF800802F232C4A0C
:1089B000281921F093F90444311B2819274A21F082
:1089C0008DF908F10408B8F1280F0444E5D14FF0FF
:1089D0000008424631213846FEF7C7F9311B0190A5
:1089E000CDF8008031231E4A281921F077F904447C
:1089F000311B2819194A21F071F908F10408B8F15E
:108A0000540F0444E5D14FF0000842463621384661
:108A1000FEF7ABF9311B0190CDF800803623104AE8
:108A2000281921F05BF90444311B28190B4A21F065
:108A300055F908F10408B8F1340F0444E5D1094AA6
:108A4000311B281921F04AF92118074821F0DAF8DA
:108A500007B0BDE8F08300BF2775070016B4070014
:108A6000427507005675070033B9070001207047AB
:108A7000704710B5002204460421FEF776F920461F
:108A80004FF4B05300220421BDE81040FEF7D3B9E3
:108A900008B5FFF7EEFF002008BD38B50D46D0F849
:108AA000F84D114628461A46049BA047002038BDC1
:108AB00038B50D46D0F8F44D114628461A46049BA9
:108AC000A047002038BD4FF04023C3F82405002004
:108AD000704700002DE9F043984683181646DA1DCA
:108AE00085B022F0070202AFADEB020D0D4A8E46B3
:108AF000044692E803000DF108099BB287E80300E1
:108B0000009371464B462246384629F0C1FB324657
:108B100009EB0401404620F07FFF00200C37BD46E2
:108B2000BDE8F0835C7507002DE9F043841890469A
:108B3000E21D85B022F0070202AFADEB020D02AEDE
:108B4000994605460246304620F066FF42464946B1
:108B5000701920F061FF084B93E80300A2B287E888
:108B60000300009233463146384629F091FB00203D
:108B70000C37BD46BDE8F0835C75070070B54FF05B
:108B8000A04403254FF40036C4F844574FF4FF7057
:108B9000C4F80C6528F088F80023C4F84457C4F8DA
:108BA0000865C4F86037D4F86037DB074CBFD4F8E9
:108BB0000405D4F81005C0F3006080F0010058B13E
:108BC000C4F844570220C4F80C6528F06DF8C4F8C6
:108BD0004457C4F80865E6E700F08EFF064E0546E8
:108BE00032242846FEF7D8F8B04204D0012028F0FD
:108BF0005BF8013CF5D170BD3001CADE704709B9A0
:108C0000FFF737BF7047000038B510EE100A154661
:108C10000C461FF00FFA0022334B1FF05FFA1FF0D3
:108C20000DFDFF28A8BFFF20012D24D1042C01D069
:108C3000072C0FD12D4B2E4A1B5D03EB031302EBC8
:108C400083020023D15C814201DA0133FAE7A3F108
:108C50001C0033E0274B1B5D03EBC30203EB8203D5
:108C6000254A1A440023D15C814201DA0133FAE734
:108C7000A3F1170022E0042C01D0072C10D11B4BCC
:108C80001B5DC3EB0312C3EB82031C4A1A4400238F
:108C9000D15C814201DA0133FAE7A3F11E000DE055
:108CA000144B174A195D1A2301FB03220023D15CE0
:108CB000814201DA0133FAE7A3F1110007EE900ACD
:108CC000F8EEE77A17EE900A1FF0B4F904A3D3E99F
:108CD00000231FF003FA41EC100B38BDAFF3008006
:108CE0007B14AE47E17A843F00001040F87507001E
:108CF000707607000076070064750700F8760700B5
:108D0000087607000000000008B551EC100B04A322
:108D1000D3E900231FF0E2F91FF0C4FE08BD00BF35
:108D2000000000403333EF4037B500240D4669465C
:108D300000948DF80440FEF70EF89DF801209DF890
:108D400000309DF8041003EB02239DF8022003EB92
:108D500002439DF8032003EB0263E01841F1000198
:108D6000C5E9000103B030BD07B56946FFF7DCFF78
:108D70000098019B000A40EA036003B05DF804FB21
:108D800037B5144602A900221D46002361E90223DB
:108D9000FFF7CAFFDDE90023A41A65EB0305DDE94F
:108DA0000623A41A65EB0305084AFF232B407F2105
:108DB0006FF48030994202EA040208BF904226BF55
:108DC000100C40EA0340002003B030BD0000FFFF5C
:108DD00010B50446FEF726FE94F89C3D3BB10023F7
:108DE00084F89C3D2046FEF7F2FDFBF7BFFD04F53D
:108DF00061602BF0D3FD002384F89A3D94F8993DEF
:108E000023F0200384F8993D10BD2DE9F04797B277
:108E10001FFA83F889461546394642460446FEF74E
:108E200033F8061E41DB94F89C3DB3B3002642F2B2
:108E3000117A0136564523D000220F212046FDF736
:108E400094FF10F0100217D1142EF2D919212046E8
:108E5000FDF78BFF00F47F00B0F5003FE9D0B0F5DF
:108E6000802FE6D02046FFF7B3FF94F8993D43F0FA
:108E7000400384F8993D06E042F210739E420CD103
:108E80002046FFF7A5FF01F03FFB10B1838D0133B2
:108E900083854FF0FF30BDE8F08743464A463946A8
:108EA0002046FDF7EBFE061E0BDA01F02DFB10B19C
:108EB000836A013383622046FFF78AFF3046BDE8AC
:108EC000F08794F89C3D3BB1002384F89C3D2046FC
:108ED000FEF77DFDFBF74AFD2846BDE8F087002A36
:108EE0002DE9734F4FF0000173F1000405469046E1
:108EF00099460A9E80F8991D18DB7EB940F2851AC2
:108F00004FF0000BCDE900ABFFF73AFF30B901F0AD
:108F1000FBFA30B3836A0133836222E04FEA1821FF
:108F200041EA09612846FEF7DEFC012126B1012352
:108F300041F0040185F89C3D2846FEF7D9FC044623
:108F400058B101F0E1FA10B1836A01338362284617
:108F5000FFF73EFF4FF0FF3405E026B1FBF7DAFCE8
:108F600001E06FF00104204602B0BDE8708FD0F838
:108F7000203E10B5002B0446D4BF04F5616000F616
:108F800018602BF009FD94F8993D9B0603D5B4F8C1
:108F90009634012B06D001F0B7FA30B1836A013361
:108FA000836202E0B4F8980401E04FF0FF30002340
:108FB000A4F8963494F8993D23F0200384F8993D61
:108FC00010BD13B5002100910446FFF788FF28B9B2
:108FD000204602B0BDE81040FFF7C9BF02B010BD87
:108FE00011F0010110B5044606D0110A41EA0361EF
:108FF000FEF779FC01212046BDE81040FEF74ABD8E
:10900000F8B50C460699054616461F4639B14FF489
:109010007A73594340F20243B1FBF3F189B2FEF790
:1090200060FD14F0010106D0310A41EA07612846CB
:10903000FEF759FC01212846BDE8F840FEF72ABD9D
:109040000438C0B230289ABF024B33F81000002019
:10905000704700BF50780700F0B52DED028B02314C
:1090600083B0044688B215461EF0D2FF41A3D3E96F
:10907000002306460F461FF031F841EC100B1EF09E
:1090800023FC0022304B304639468DED000B1FF09B
:1090900025F89DED000B06460F46002251EC100B03
:1090A0002A4B1FF01BF80B460246394630461EF08D
:1090B00063FE1FF0C3FA94F85B3D07EE900AB8EE2A
:1090C000E70A33B9DFED227A9FED228A60EE278A24
:1090D00010E0012B06D1DFED207A9FED208A60EEB3
:1090E000278A07E0DFED1E7A9FED1C8A022B60EED7
:1090F000278A02D11B4AD65600E0082694F8560D5E
:10910000FFF79EFF94F8553D002808BF8020012BF3
:1091100006EB000307EE103A0CBF9FED130A9FED1C
:10912000130AB8EEC77A78EE887A27EE007A37EE1F
:10913000870A1DB1DFED0E7A30EE270A03B0BDECD1
:10914000028BF0BDAFF300800000204000004840DB
:1091500036480341D94E2C432C48833FDF4FAC4166
:109160007B49033E047B0700EA5B7E3FB341823FBD
:1091700000001042D318308D01D3983F000000004A
:109180002DE9F0432DED028B85B098460E9C231DF2
:10919000064691460093002208230D461221FDF752
:1091A0007FFD072215213046FDF7FAFD0022608081
:1091B00010213046FDF7D9FDE188628823894943B3
:1091C00002FB021203FB032300EE103A000DA08104
:1091D000B8EEC00A01F044FBA3895B43B0EE408ABD
:1091E00000EE103AB8EEC00A01F03AFB3C4B93EDAA
:1091F000027B38EE400AF2EE048A8DED027B60EECF
:10920000287A17EE900A1EF015FFDDE902231EF002
:10921000B1FDC8E9000160891EF0FAFE00224FF09E
:1092200082431EF05BFF1FF051FA00EE100A01F0BE
:1092300017FBA3895B43B0EE408A00EE103AB8EE0C
:10924000C00A01F00DFB38EE400A60EE287A17EEF6
:10925000900A1EF0EFFEDDE902231EF08BFD0646AC
:109260000F46C9E9006702460B46D8E900011EF027
:1092700081FD19A3D3E9002380468946304639464B
:109280001FF09EF908B1002311E00022154B304673
:1092900039461EF071FD02460B461EF06DFD1FF0B3
:1092A000F5F9C0B23F2801D8287001E03F232B70A8
:1092B0000D4B0022404649461FF096F92B7810B11D
:1092C00043F0400301E063F07F032B7005B0BDEC79
:1092D000028BBDE8F08300BF0000000000405AC0D0
:1092E000087B070000405A40000024C00000000036
:1092F00038B506222DED028B12210446FDF750FDF4
:109300000222054610212046FDF74AFDC0F30B144A
:1093100028461EF07DFE00224FF082431EF0DEFE46
:109320001FF0D4F900EE100A01F09AFA04FB04F3DE
:10933000B0EE408A00EE103AB8EEC00A01F090FAA2
:1093400038EE400AF2EE047A60EE277A17EE900AC1
:109350001EF070FE124BD3E902231EF00BFD00221B
:10936000104B04460D461FF049F960B90AA3D3E932
:109370000023204629461FF023F938B92046294604
:109380001FF05CF904E06FF0290001E06FF0680065
:10939000BDEC028B38BD00BF0000000000405AC089
:1093A000087B0700000045C0002200F65451FDF77D
:1093B0006FBF10B5044600F55661FDF751FD94F8F6
:1093C0005D1D2046BDE81040FEF786B8A0F8681D78
:1093D000FDF726BDA0F86A1DFDF728BD70B50E4645
:1093E0001446182100220546FDF7DAFC41F6040276
:1093F00030802E212846FDF7D3FC208070BD70B54B
:109400000E460446114630461546FBF7EBFF314643
:109410002046FFF7DFFF29462046BDE87040FFF7F2
:10942000D5BF38B505460C4685F88B1D0846FBF7B9
:10943000FBFF21462846BDE83840FEF77EBDF8B563
:109440000D46002107461646FEF751FE044668B158
:10945000C1B23846FEF7E0FEC4F3072186ED000AEC
:109460003846FEF7BDFE85ED000AF8BD00233360E7
:109470002B60F8BD1FB504AB472203F8042D312142
:10948000009328220123FDF7AFFB05B05DF804FB34
:109490002DE9F0472DED028B002288B00023044611
:1094A0008846CDE90423CDE90623FCF789FC002892
:1094B00000F0D380D4F8803D002B00F0CE80B4F8CB
:1094C000843D002B00F0C980B4F9863D002B00F0EC
:1094D000C48004A92046FFF727FC2BF019F8D4F824
:1094E000F03D82464FF000509847002303AA02A99E
:1094F0002046FFF7A4FF9DED038A18EE100A1EF028
:1095000099FD5BA3D3E900231FF078F808B9002682
:1095100065E004F55966D6ED007AF5EE407ADDEDAA
:10952000027AF1EE10FA04F68C5708BFC7ED007A04
:1095300097ED007A08BF86ED008A77EEC77AB0EE25
:10954000007AF0EEE77AF4EEC77AF1EE10FA12DC68
:10955000D6ED007A38EE678AF0EEC87A17EE900AF8
:109560001EF068FD44A3D3E900231FF047F810B9AB
:10957000B8F1000FCBD0B4F8841D2046FEF7B6FE3C
:109580005FFA80F9B9F1000FC1D0DDED027AB4F9CC
:10959000860DFDEEE77A04F69458CDED007A1EF0C4
:1095A00037FDBDF90050CDE9000128461EF030FD21
:1095B000D8ED002A9DED032A41EC100B9DED001B18
:1095C000D4F8801D94F8540DFEF734FF029B84F804
:1095D000609DC4F8640D3B60039B33600126D4F8A2
:1095E000F03D4FF00040984706A92046FFF79CFB4E
:1095F0002AF08EFFDDE906230746DDE90401121A91
:1096000063EB0103104603F0FF011EF031FD1CA3C4
:10961000D3E900231EF062FDCAEB0707804627F05E
:109620007F40013089461EF0E3FC02460B4640466F
:1096300049461EF09FFB1FF001F807467EB104F576
:1096400056612046FDF70CFCA4F8885D00F05CFF35
:1096500028B1C38B0133C38301E06FF00047384664
:1096600008B0BDEC028BBDE8F08700BFAFF300800F
:109670009A999999999901409A9999999999B93F83
:109680002A87AD890669F03E73B50379A1F896344F
:109690000679012E0C462AD1002569462046009500
:1096A0008DF80450FDF743FB9DF801109DF8003044
:1096B00003EB01239DF8021003EB01439DF8031017
:1096C00003EB01639DF80410E81804F5576241F1BB
:1096D0000001C2E9000194F89D3DA4F896644BB1E5
:1096E00027F06AFC84F89D5DC4F8780D02E005233C
:1096F000A1F8963494F8993D43F0200384F8993DFD
:1097000002B070BDF0B591F8295D02794FF488631D
:1097100003FB051385B083F8A128C288A3F8A2280B
:109720000379042B0C4600F09C800B2B00F0A080EA
:10973000022B91F8283D40F096801BB10021204675
:10974000FEF7A8F994F89D3D33B127F035FC0023CE
:10975000C4F87C0D84F89D3D002702A9204602979D
:109760008DF80C70FDF7EDFA9DF809109DF80830A2
:1097700003EB01239DF80A1003EB01439DF80B1046
:109780004FF4886603EB01639DF80C1006FB05425D
:10979000F81841F1000102F6A80ECEE90001B2F876
:1097A000A218A2F8A418B4F82C3D1BB1994288BFA6
:1097B000A2F8A2386E43A21906F594610023B2F80C
:1097C000A22821442046FDF78BFA94F89B3D012BFB
:1097D00012D106F50D6306F6C80206F6D80106F5A5
:1097E0000B66264423440096224421442046FFF77A
:1097F000C7FC002384F89B3D94F89E3D012B4FF459
:10980000886607D12046FFF773FD06FB054686F8FC
:10981000D90804E006FB0546002386F8D9384FF442
:10982000886303FB054393F8A024C52AB3F8A22854
:1098300008D10C2A01D11F2210E00E3A202A0CD8A0
:1098400020220BE0052A08D194F8272D93F8A214C2
:1098500091420CBF1E221D2200E0022283F8A128A3
:1098600006E091F8283D1BB100212046FEF712F9D1
:1098700094F8292D012303FA02F294F8993D134339
:1098800084F8993D002384F89E3D05B0F0BD38B5BD
:1098900090F89F5D04461DBB012380F89F3DD0F8E2
:1098A000040E29F01BFAD4F8043E4FF0A04203F551
:1098B000E073022142F8231020462A464FF0FF3180
:1098C000FEF746F9204605224FF40C61FDF799FC9E
:1098D000D4F8003E98472046BDE83840FDF78FBCDD
:1098E00038BD000038B590F89F3D04463BB30025D5
:1098F000D0F8FC3D80F89F5D984701221049204632
:10990000FEF726F92A4629462046FDF77AFCB4F8E8
:109910006A1D2046FFF75EFDFCF7D6FA18B101215B
:109920002046FDF728FE4FF0A0430022C3F84C2745
:10993000D4F8040E0121BDE8384029F06DB938BDD6
:1099400080D0233410B41C46134622465DF8044BE5
:10995000FDF7C6B9D0F8FC3D10B50446984720463F
:10996000FDF71AFA244B984240D12046FEF7A4FA9C
:1099700000212046FFF743F940F608012046FDF795
:109980001BFFB0BB2046FDF707FAC4F84C0D20467C
:10999000FDF724F9C4F8480D2046FDF722F901220D
:1099A000C4F8500D15492046FEF7D2F8FCF78CFAA2
:1099B00018B101212046FDF7DEFD2046FFF75AFDD4
:1099C0002046D4F8E82DD4F8EC1DFDF7CFFD00209B
:1099D000802384F8993D84F8A10841F2883384F803
:1099E000E10C84F89A0DA4F8243D10BD4FF0FF302F
:1099F00010BD6FF0010010BD3001CADE80D02334ED
:109A00001FB54FF080530446196E586E00220A436A
:109A10000346CDE900239DE8030002AB83E8030081
:109A2000D4F8482D9DF80A108DF80820100A01F08E
:109A3000F001C2F303420A438DF80A20CA228DF8CE
:109A40000E20DE228DF809008DF80F2003CBC4F81C
:109A5000360DC4F83A1DD4F8361D204689B2FDF7FC
:109A600044FA4FF0FF33A4F83E3DA4F8403DA4F87B
:109A7000423DA4F8443D04B010BD0346D0F8360D75
:109A8000D3F83A1D704730B590F8993D9A0606D53F
:109A900023F0200380F8993D90F8960430BD03210F
:109AA00003EA0104F4B101391CD090F82A2D0132E7
:109AB00002F0010243FA02F5ED0780F82A2DF1D5F4
:109AC0000121914023EA010380F8993D4FF4886316
:109AD0005A4302F5946303440244C0F8203D92F8CF
